:100000000C942F000C9455010C945F010C944C003F
:100010000C944B010C944C000C944C000C9441013A
:100020000C944C000C944C000C942D010C944C003E
:100030000C944C000C944C000C944C000C944C0010
:100040000C944C000C944C000C944C000C944C0000
:100050000C944C004F6964610000920197011124D7
:100060001FBECFE5D8E0DEBFCDBF20E0A0E6B0E008
:1000700001C01D92A136B207E1F710E0CEE2D0E058
:1000800004C02197FE010E94C001CD32D107C9F7FB
:100090000E948E010C94C6010C9400008FEF87BB68
:1000A00008950895161617069CF420E030E081E1CB
:1000B00095E00000000000000000000000000000CB
:1000C00000000197B1F72F5F3F4F6217730779F771
:1000D0000895662311F0C39A0895C3980895C29AAB
:1000E00084EF91E000000197E9F7C298089528B3E2
:1000F0002F7028BB28B36295607F622B68BB0E947B
:100100006F0008950F931F93CF938C01C62FC09A51
:10011000607F70E07595679575956795759567959E
:10012000759567950E9477006C2F6F70C8010E94CB
:100130007700C098CF911F910F910895EF92FF9291
:100140000F931F93CF93FB016491662369F08F0196
:100150007C01C1E0C7010E948200F801EC0FF11D93
:100160006491CF5F6111F6CFCF911F910F91FF90F6
:10017000EF9008950F931F93CF938C01C62F607F4C
:1001800070E0759567957595679575956795759503
:1001900067950E9477006C2F6F70C8010E947700EE
:1001A000CF911F910F910895CF93DF93EC0184E0DD
:1001B00088BB63E0CE010E9477006FE070E0CE0163
:1001C0000E94520063E0CE010E9477006FE070E071
:1001D000CE010E94520063E0CE010E9477006FE0E2
:1001E00070E0CE010E94520062E0CE010E947700D2
:1001F00065E070E0CE010E94520061E0CE010E94F5
:10020000BA0065E070E0CE010E94520060E0CE01CD
:100210000E94BA0065E070E0CE010E9452006CE2DC
:10022000CE010E94BA0065E070E0CE010E9452004B
:1002300061E0CE010E94BA0065E070E0CE010E944C
:1002400052006CE0CE010E94BA0065E070E0CE0181
:100250000E945200DF91CF9108951F920F920FB626
:100260000F9211248F939F9312BE94B382E089273B
:1002700084BB78949F918F910F900FBE0F901F9029
:1002800018951F920F920FB60F9211240F900FBE68
:100290000F901F9018951F920F920FB60F92112476
:1002A0000F900FBE0F901F9018951F920F920FB6D0
:1002B0000F9211240F900FBE0F901F9018951F9250
:1002C0000F920FB60F9211240F900FBE0F901F9038
:1002D00018950E94AE010E949C010E94AE0164E547
:1002E00070E080E690E00E949E0061E080E690E091
:1002F0000E94690008958F9A80E690E00E94D400E1
:100300000E9469010895F89483B7836083BF89B719
:10031000826089BF8DE78CBF7894FFCF0E947B01FC
:100320000E94830180E690E00E944E00089580E6DE
:1003300090E00E94510008952CE231E0979A80E904
:1003400091E000000197E9F7979880E991E00000BB
:100350000197E9F72150310989F7089522E330E048
:10036000979A8CE291E000000197E9F797988CE268
:1003700091E000000197E9F72150310989F70895CC
:10038000EE0FFF1F0590F491E02D099410E0CEE2EE
:10039000D0E004C0FE010E94C0012196CF32D107F7
:0603A000C9F7F894FFCF3D
:00000001FF
